{"abi":[{"type":"constructor","inputs":[{"name":"name_","type":"string","internalType":"string"},{"name":"symbol_","type":"string","internalType":"string"}],"stateMutability":"nonpayable"},{"type":"function","name":"acceptOwnership","inputs":[],"outputs":[],"stateMutability":"nonpayable"},{"type":"function","name":"approve","inputs":[{"name":"to","type":"address","internalType":"address"},{"name":"tokenId","type":"uint256","internalType":"uint256"}],"outputs":[],"stateMutability":"nonpayable"},{"type":"function","name":"balanceOf","inputs":[{"name":"owner","type":"address","internalType":"address"}],"outputs":[{"name":"","type":"uint256","internalType":"uint256"}],"stateMutability":"view"},{"type":"function","name":"getApproved","inputs":[{"name":"tokenId","type":"uint256","internalType":"uint256"}],"outputs":[{"name":"","type":"address","internalType":"address"}],"stateMutability":"view"},{"type":"function","name":"isApprovedForAll","inputs":[{"name":"owner","type":"address","internalType":"address"},{"name":"operator","type":"address","internalType":"address"}],"outputs":[{"name":"","type":"bool","internalType":"bool"}],"stateMutability":"view"},{"type":"function","name":"mintToEscrow","inputs":[{"name":"tokenId","type":"uint256","internalType":"uint256"},{"name":"uri","type":"string","internalType":"string"}],"outputs":[],"stateMutability":"nonpayable"},{"type":"function","name":"name","inputs":[],"outputs":[{"name":"","type":"string","internalType":"string"}],"stateMutability":"view"},{"type":"function","name":"owner","inputs":[],"outputs":[{"name":"","type":"address","internalType":"address"}],"stateMutability":"view"},{"type":"function","name":"ownerOf","inputs":[{"name":"tokenId","type":"uint256","internalType":"uint256"}],"outputs":[{"name":"","type":"address","internalType":"address"}],"stateMutability":"view"},{"type":"function","name":"pendingOwner","inputs":[],"outputs":[{"name":"","type":"address","internalType":"address"}],"stateMutability":"view"},{"type":"function","name":"poidh","inputs":[],"outputs":[{"name":"","type":"address","internalType":"address"}],"stateMutability":"view"},{"type":"function","name":"renounceOwnership","inputs":[],"outputs":[],"stateMutability":"nonpayable"},{"type":"function","name":"safeTransferFrom","inputs":[{"name":"from","type":"address","internalType":"address"},{"name":"to","type":"address","internalType":"address"},{"name":"tokenId","type":"uint256","internalType":"uint256"}],"outputs":[],"stateMutability":"nonpayable"},{"type":"function","name":"safeTransferFrom","inputs":[{"name":"from","type":"address","internalType":"address"},{"name":"to","type":"address","internalType":"address"},{"name":"tokenId","type":"uint256","internalType":"uint256"},{"name":"data","type":"bytes","internalType":"bytes"}],"outputs":[],"stateMutability":"nonpayable"},{"type":"function","name":"setApprovalForAll","inputs":[{"name":"operator","type":"address","internalType":"address"},{"name":"approved","type":"bool","internalType":"bool"}],"outputs":[],"stateMutability":"nonpayable"},{"type":"function","name":"setPoidh","inputs":[{"name":"newPoidh","type":"address","internalType":"address"}],"outputs":[],"stateMutability":"nonpayable"},{"type":"function","name":"supportsInterface","inputs":[{"name":"interfaceId","type":"bytes4","internalType":"bytes4"}],"outputs":[{"name":"","type":"bool","internalType":"bool"}],"stateMutability":"view"},{"type":"function","name":"symbol","inputs":[],"outputs":[{"name":"","type":"string","internalType":"string"}],"stateMutability":"view"},{"type":"function","name":"tokenURI","inputs":[{"name":"tokenId","type":"uint256","internalType":"uint256"}],"outputs":[{"name":"","type":"string","internalType":"string"}],"stateMutability":"view"},{"type":"function","name":"transferFrom","inputs":[{"name":"from","type":"address","internalType":"address"},{"name":"to","type":"address","internalType":"address"},{"name":"tokenId","type":"uint256","internalType":"uint256"}],"outputs":[],"stateMutability":"nonpayable"},{"type":"function","name":"transferOwnership","inputs":[{"name":"newOwner","type":"address","internalType":"address"}],"outputs":[],"stateMutability":"nonpayable"},{"type":"event","name":"Approval","inputs":[{"name":"owner","type":"address","indexed":true,"internalType":"address"},{"name":"approved","type":"address","indexed":true,"internalType":"address"},{"name":"tokenId","type":"uint256","indexed":true,"internalType":"uint256"}],"anonymous":false},{"type":"event","name":"ApprovalForAll","inputs":[{"name":"owner","type":"address","indexed":true,"internalType":"address"},{"name":"operator","type":"address","indexed":true,"internalType":"address"},{"name":"approved","type":"bool","indexed":false,"internalType":"bool"}],"anonymous":false},{"type":"event","name":"BatchMetadataUpdate","inputs":[{"name":"_fromTokenId","type":"uint256","indexed":false,"internalType":"uint256"},{"name":"_toTokenId","type":"uint256","indexed":false,"internalType":"uint256"}],"anonymous":false},{"type":"event","name":"MetadataUpdate","inputs":[{"name":"_tokenId","type":"uint256","indexed":false,"internalType":"uint256"}],"anonymous":false},{"type":"event","name":"OwnershipTransferStarted","inputs":[{"name":"previousOwner","type":"address","indexed":true,"internalType":"address"},{"name":"newOwner","type":"address","indexed":true,"internalType":"address"}],"anonymous":false},{"type":"event","name":"OwnershipTransferred","inputs":[{"name":"previousOwner","type":"address","indexed":true,"internalType":"address"},{"name":"newOwner","type":"address","indexed":true,"internalType":"address"}],"anonymous":false},{"type":"event","name":"PoidhSet","inputs":[{"name":"oldPoidh","type":"address","indexed":true,"internalType":"address"},{"name":"newPoidh","type":"address","indexed":true,"internalType":"address"}],"anonymous":false},{"type":"event","name":"Transfer","inputs":[{"name":"from","type":"address","indexed":true,"internalType":"address"},{"name":"to","type":"address","indexed":true,"internalType":"address"},{"name":"tokenId","type":"uint256","indexed":true,"internalType":"uint256"}],"anonymous":false},{"type":"error","name":"ERC721IncorrectOwner","inputs":[{"name":"sender","type":"address","internalType":"address"},{"name":"tokenId","type":"uint256","internalType":"uint256"},{"name":"owner","type":"address","internalType":"address"}]},{"type":"error","name":"ERC721InsufficientApproval","inputs":[{"name":"operator","type":"address","internalType":"address"},{"name":"tokenId","type":"uint256","internalType":"uint256"}]},{"type":"error","name":"ERC721InvalidApprover","inputs":[{"name":"approver","type":"address","internalType":"address"}]},{"type":"error","name":"ERC721InvalidOperator","inputs":[{"name":"operator","type":"address","internalType":"address"}]},{"type":"error","name":"ERC721InvalidOwner","inputs":[{"name":"owner","type":"address","internalType":"address"}]},{"type":"error","name":"ERC721InvalidReceiver","inputs":[{"name":"receiver","type":"address","internalType":"address"}]},{"type":"error","name":"ERC721InvalidSender","inputs":[{"name":"sender","type":"address","internalType":"address"}]},{"type":"error","name":"ERC721NonexistentToken","inputs":[{"name":"tokenId","type":"uint256","internalType":"uint256"}]},{"type":"error","name":"InvalidPoidhAddress","inputs":[]},{"type":"error","name":"NotPoidh","inputs":[]},{"type":"error","name":"OwnableInvalidOwner","inputs":[{"name":"owner","type":"address","internalType":"address"}]},{"type":"error","name":"OwnableUnauthorizedAccount","inputs":[{"name":"account","type":"address","internalType":"address"}]}],"bytecode":{"object":"0x608060405234801562000010575f80fd5b50604051620018f5380380620018f58339810160408190526200003391620001c7565b3382825f620000438382620002b7565b506001620000528282620002b7565b5050506001600160a01b0381166200008357604051631e4fbdf760e01b81525f600482015260240160405180910390fd5b6200008e8162000097565b50505062000383565b600880546001600160a01b0319169055620000b281620000b5565b50565b600780546001600160a01b038381166001600160a01b0319831681179093556040519116919082907f8be0079c531659141344cd1fd0a4f28419497f9722a3daafe3b4186f6b6457e0905f90a35050565b634e487b7160e01b5f52604160045260245ffd5b5f82601f8301126200012a575f80fd5b81516001600160401b038082111562000147576200014762000106565b604051601f8301601f19908116603f0116810190828211818310171562000172576200017262000106565b81604052838152602092508660208588010111156200018f575f80fd5b5f91505b83821015620001b2578582018301518183018401529082019062000193565b5f602085830101528094505050505092915050565b5f8060408385031215620001d9575f80fd5b82516001600160401b0380821115620001f0575f80fd5b620001fe868387016200011a565b9350602085015191508082111562000214575f80fd5b5062000223858286016200011a565b9150509250929050565b600181811c908216806200024257607f821691505b6020821081036200026157634e487b7160e01b5f52602260045260245ffd5b50919050565b601f821115620002b257805f5260205f20601f840160051c810160208510156200028e5750805b601f840160051c820191505b81811015620002af575f81556001016200029a565b50505b505050565b81516001600160401b03811115620002d357620002d362000106565b620002eb81620002e484546200022d565b8462000267565b602080601f83116001811462000321575f8415620003095750858301515b5f19600386901b1c1916600185901b1785556200037b565b5f85815260208120601f198616915b82811015620003515788860151825594840194600190910190840162000330565b50858210156200036f57878501515f19600388901b60f8161c191681555b505060018460011b0185555b505050505050565b61156480620003915f395ff3fe608060405234801561000f575f80fd5b5060043610610132575f3560e01c8063715018a6116100b4578063b88d4fde11610079578063b88d4fde1461026f578063c87b56dd14610282578063e30c397814610295578063e985e9c5146102a6578063f2fde38b146102b9578063fad2dc42146102cc575f80fd5b8063715018a61461023357806379ba50971461023b5780638da5cb5b1461024357806395d89b4114610254578063a22cb4651461025c575f80fd5b806328f0f235116100fa57806328f0f235146101c657806342842e0e146101d957806356843ece146101ec5780636352211e146101ff57806370a0823114610212575f80fd5b806301ffc9a71461013657806306fdde031461015e578063081812fc14610173578063095ea7b31461019e57806323b872dd146101b3575b5f80fd5b610149610144366004611083565b6102df565b60405190151581526020015b60405180910390f35b610166610309565b60405161015591906110eb565b6101866101813660046110fd565b610398565b6040516001600160a01b039091168152602001610155565b6101b16101ac36600461112f565b6103bf565b005b6101b16101c1366004611157565b6103ce565b6101b16101d4366004611190565b61045c565b6101b16101e7366004611157565b6104dc565b6101b16101fa3660046111a9565b6104fb565b61018661020d3660046110fd565b61057b565b610225610220366004611190565b610585565b604051908152602001610155565b6101b16105ca565b6101b16105dd565b6007546001600160a01b0316610186565b610166610621565b6101b161026a36600461121e565b610630565b6101b161027d36600461126b565b61063b565b6101666102903660046110fd565b610653565b6008546001600160a01b0316610186565b6101496102b4366004611340565b6106d4565b6101b16102c7366004611190565b610701565b600954610186906001600160a01b031681565b5f6001600160e01b03198216632483248360e11b1480610303575061030382610772565b92915050565b60605f805461031790611371565b80601f016020809104026020016040519081016040528092919081815260200182805461034390611371565b801561038e5780601f106103655761010080835404028352916020019161038e565b820191905f5260205f20905b81548152906001019060200180831161037157829003601f168201915b5050505050905090565b5f6103a2826107c1565b505f828152600460205260409020546001600160a01b0316610303565b6103ca8282336107f9565b5050565b6001600160a01b0382166103fc57604051633250574960e11b81525f60048201526024015b60405180910390fd5b5f610408838333610806565b9050836001600160a01b0316816001600160a01b031614610456576040516364283d7b60e01b81526001600160a01b03808616600483015260248201849052821660448201526064016103f3565b50505050565b6104646108f8565b6001600160a01b03811661048b576040516307ecae5560e41b815260040160405180910390fd5b600980546001600160a01b038381166001600160a01b0319831681179093556040519116919082907fdae9d7752f1353e622d63f28d45bb02ba0d9c8a5da9d60e12bb88bde5a4b1649905f90a35050565b6104f683838360405180602001604052805f81525061063b565b505050565b6009546001600160a01b03163314610526576040516317f1151560e31b815260040160405180910390fd5b60095461053c906001600160a01b031684610925565b6104f68383838080601f0160208091040260200160405190810160405280939291908181526020018383808284375f9201919091525061098692505050565b5f610303826107c1565b5f6001600160a01b0382166105af576040516322718ad960e21b81525f60048201526024016103f3565b506001600160a01b03165f9081526003602052604090205490565b6105d26108f8565b6105db5f6109d5565b565b60085433906001600160a01b031681146106155760405163118cdaa760e01b81526001600160a01b03821660048201526024016103f3565b61061e816109d5565b50565b60606001805461031790611371565b6103ca3383836109ee565b6106468484846103ce565b6104563385858585610ab5565b606061065e826107c1565b505f61067460408051602081019091525f815290565b90505f61068084610bdd565b905081515f03610691579392505050565b8051156106c35781816040516020016106ab9291906113a9565b60405160208183030381529060405292505050919050565b6106cc84610c7c565b949350505050565b6001600160a01b039182165f90815260056020908152604080832093909416825291909152205460ff1690565b6107096108f8565b600880546001600160a01b0383166001600160a01b0319909116811790915561073a6007546001600160a01b031690565b6001600160a01b03167f38d16b8cac22d99fc7c124b9cd0de2d3fa1faef420bfe791d8c362d765e2270060405160405180910390a350565b5f6001600160e01b031982166380ac58cd60e01b14806107a257506001600160e01b03198216635b5e139f60e01b145b8061030357506301ffc9a760e01b6001600160e01b0319831614610303565b5f818152600260205260408120546001600160a01b03168061030357604051637e27328960e01b8152600481018490526024016103f3565b6104f68383836001610ced565b5f828152600260205260408120546001600160a01b039081169083161561083257610832818486610df1565b6001600160a01b0381161561086c5761084d5f855f80610ced565b6001600160a01b0381165f90815260036020526040902080545f190190555b6001600160a01b0385161561089a576001600160a01b0385165f908152600360205260409020805460010190555b5f8481526002602052604080822080546001600160a01b0319166001600160a01b0389811691821790925591518793918516917fddf252ad1be2c89b69c2b068fc378daa952ba7f163c4a11628f55a4df523b3ef91a4949350505050565b6007546001600160a01b031633146105db5760405163118cdaa760e01b81523360048201526024016103f3565b6001600160a01b03821661094e57604051633250574960e11b81525f60048201526024016103f3565b5f61095a83835f610806565b90506001600160a01b038116156104f6576040516339e3563760e11b81525f60048201526024016103f3565b5f82815260066020526040902061099d828261141b565b506040518281527ff8e1a15aba9398e019f0b49df1a4fde98ee17ae345cb5f6b5e2c27f5033e8ce79060200160405180910390a15050565b600880546001600160a01b031916905561061e81610e55565b6001600160a01b038316610a175760405163a9fbf51f60e01b81525f60048201526024016103f3565b6001600160a01b038216610a4957604051630b61174360e31b81526001600160a01b03831660048201526024016103f3565b6001600160a01b038381165f81815260056020908152604080832094871680845294825291829020805460ff191686151590811790915591519182527f17307eab39ab6107e8899845ad3d59bd9653f200f220920489ca2b5937696c31910160405180910390a3505050565b6001600160a01b0383163b15610bd657604051630a85bd0160e11b81526001600160a01b0384169063150b7a0290610af79088908890879087906004016114d7565b6020604051808303815f875af1925050508015610b31575060408051601f3d908101601f19168201909252610b2e91810190611513565b60015b610b98573d808015610b5e576040519150601f19603f3d011682016040523d82523d5f602084013e610b63565b606091505b5080515f03610b9057604051633250574960e11b81526001600160a01b03851660048201526024016103f3565b805160208201fd5b6001600160e01b03198116630a85bd0160e11b14610bd457604051633250574960e11b81526001600160a01b03851660048201526024016103f3565b505b5050505050565b5f818152600660205260409020805460609190610bf990611371565b80601f0160208091040260200160405190810160405280929190818152602001828054610c2590611371565b8015610c705780601f10610c4757610100808354040283529160200191610c70565b820191905f5260205f20905b815481529060010190602001808311610c5357829003601f168201915b50505050509050919050565b6060610c87826107c1565b505f610c9d60408051602081019091525f815290565b90505f815111610cbb5760405180602001604052805f815250610ce6565b80610cc584610ea6565b604051602001610cd69291906113a9565b6040516020818303038152906040525b9392505050565b8080610d0157506001600160a01b03821615155b15610dc2575f610d10846107c1565b90506001600160a01b03831615801590610d3c5750826001600160a01b0316816001600160a01b031614155b8015610d4f5750610d4d81846106d4565b155b15610d785760405163a9fbf51f60e01b81526001600160a01b03841660048201526024016103f3565b8115610dc05783856001600160a01b0316826001600160a01b03167f8c5be1e5ebec7d5bd14f71427d1e84f3dd0314c0f7b2291e5b200ac8c7c3b92560405160405180910390a45b505b50505f90815260046020526040902080546001600160a01b0319166001600160a01b0392909216919091179055565b610dfc838383610f36565b6104f6576001600160a01b038316610e2a57604051637e27328960e01b8152600481018290526024016103f3565b60405163177e802f60e01b81526001600160a01b0383166004820152602481018290526044016103f3565b600780546001600160a01b038381166001600160a01b0319831681179093556040519116919082907f8be0079c531659141344cd1fd0a4f28419497f9722a3daafe3b4186f6b6457e0905f90a35050565b60605f610eb283610f97565b60010190505f8167ffffffffffffffff811115610ed157610ed1611257565b6040519080825280601f01601f191660200182016040528015610efb576020820181803683370190505b5090508181016020015b5f19016f181899199a1a9b1b9c1cb0b131b232b360811b600a86061a8153600a8504945084610f0557509392505050565b5f6001600160a01b038316158015906106cc5750826001600160a01b0316846001600160a01b03161480610f6f5750610f6f84846106d4565b806106cc5750505f908152600460205260409020546001600160a01b03908116911614919050565b5f8072184f03e93ff9f4daa797ed6e38ed64bf6a1f0160401b8310610fd55772184f03e93ff9f4daa797ed6e38ed64bf6a1f0160401b830492506040015b6d04ee2d6d415b85acef81000000008310611001576d04ee2d6d415b85acef8100000000830492506020015b662386f26fc10000831061101f57662386f26fc10000830492506010015b6305f5e1008310611037576305f5e100830492506008015b612710831061104b57612710830492506004015b6064831061105d576064830492506002015b600a83106103035760010192915050565b6001600160e01b03198116811461061e575f80fd5b5f60208284031215611093575f80fd5b8135610ce68161106e565b5f5b838110156110b85781810151838201526020016110a0565b50505f910152565b5f81518084526110d781602086016020860161109e565b601f01601f19169290920160200192915050565b602081525f610ce660208301846110c0565b5f6020828403121561110d575f80fd5b5035919050565b80356001600160a01b038116811461112a575f80fd5b919050565b5f8060408385031215611140575f80fd5b61114983611114565b946020939093013593505050565b5f805f60608486031215611169575f80fd5b61117284611114565b925061118060208501611114565b9150604084013590509250925092565b5f602082840312156111a0575f80fd5b610ce682611114565b5f805f604084860312156111bb575f80fd5b83359250602084013567ffffffffffffffff808211156111d9575f80fd5b818601915086601f8301126111ec575f80fd5b8135818111156111fa575f80fd5b87602082850101111561120b575f80fd5b6020830194508093505050509250925092565b5f806040838503121561122f575f80fd5b61123883611114565b91506020830135801515811461124c575f80fd5b809150509250929050565b634e487b7160e01b5f52604160045260245ffd5b5f805f806080858703121561127e575f80fd5b61128785611114565b935061129560208601611114565b925060408501359150606085013567ffffffffffffffff808211156112b8575f80fd5b818701915087601f8301126112cb575f80fd5b8135818111156112dd576112dd611257565b604051601f8201601f19908116603f0116810190838211818310171561130557611305611257565b816040528281528a602084870101111561131d575f80fd5b826020860160208301375f60208483010152809550505050505092959194509250565b5f8060408385031215611351575f80fd5b61135a83611114565b915061136860208401611114565b90509250929050565b600181811c9082168061138557607f821691505b6020821081036113a357634e487b7160e01b5f52602260045260245ffd5b50919050565b5f83516113ba81846020880161109e565b8351908301906113ce81836020880161109e565b01949350505050565b601f8211156104f657805f5260205f20601f840160051c810160208510156113fc5750805b601f840160051c820191505b81811015610bd6575f8155600101611408565b815167ffffffffffffffff81111561143557611435611257565b611449816114438454611371565b846113d7565b602080601f83116001811461147c575f84156114655750858301515b5f19600386901b1c1916600185901b178555610bd4565b5f85815260208120601f198616915b828110156114aa5788860151825594840194600190910190840161148b565b50858210156114c757878501515f19600388901b60f8161c191681555b5050505050600190811b01905550565b6001600160a01b03858116825284166020820152604081018390526080606082018190525f90611509908301846110c0565b9695505050505050565b5f60208284031215611523575f80fd5b8151610ce68161106e56fea26469706673582212209bbce6e57812c16f40efac187a4adf79ac51593aa8274801397f8d052a840af464736f6c63430008180033","linkReferences":{}},"methodIdentifiers":{"acceptOwnership()":"79ba5097","approve(address,uint256)":"095ea7b3","balanceOf(address)":"70a08231","getApproved(uint256)":"081812fc","isApprovedForAll(address,address)":"e985e9c5","mintToEscrow(uint256,string)":"56843ece","name()":"06fdde03","owner()":"8da5cb5b","ownerOf(uint256)":"6352211e","pendingOwner()":"e30c3978","poidh()":"fad2dc42","renounceOwnership()":"715018a6","safeTransferFrom(address,address,uint256)":"42842e0e","safeTransferFrom(address,address,uint256,bytes)":"b88d4fde","setApprovalForAll(address,bool)":"a22cb465","setPoidh(address)":"28f0f235","supportsInterface(bytes4)":"01ffc9a7","symbol()":"95d89b41","tokenURI(uint256)":"c87b56dd","transferFrom(address,address,uint256)":"23b872dd","transferOwnership(address)":"f2fde38b"},"id":42}