{"abi":[{"type":"constructor","inputs":[{"name":"_poidhNft","type":"address","internalType":"address"},{"name":"_treasury","type":"address","internalType":"address"},{"name":"_startClaimIndex","type":"uint256","internalType":"uint256"}],"stateMutability":"nonpayable"},{"type":"receive","stateMutability":"payable"},{"type":"function","name":"BPS_DENOM","inputs":[],"outputs":[{"name":"","type":"uint256","internalType":"uint256"}],"stateMutability":"view"},{"type":"function","name":"FEE_BPS","inputs":[],"outputs":[{"name":"","type":"uint256","internalType":"uint256"}],"stateMutability":"view"},{"type":"function","name":"MAX_PARTICIPANTS","inputs":[],"outputs":[{"name":"","type":"uint256","internalType":"uint256"}],"stateMutability":"view"},{"type":"function","name":"MIN_BOUNTY_AMOUNT","inputs":[],"outputs":[{"name":"","type":"uint256","internalType":"uint256"}],"stateMutability":"view"},{"type":"function","name":"acceptClaim","inputs":[{"name":"bountyId","type":"uint256","internalType":"uint256"},{"name":"claimId","type":"uint256","internalType":"uint256"}],"outputs":[],"stateMutability":"nonpayable"},{"type":"function","name":"acceptOwnership","inputs":[],"outputs":[],"stateMutability":"nonpayable"},{"type":"function","name":"bounties","inputs":[{"name":"","type":"uint256","internalType":"uint256"}],"outputs":[{"name":"id","type":"uint256","internalType":"uint256"},{"name":"issuer","type":"address","internalType":"address"},{"name":"name","type":"string","internalType":"string"},{"name":"description","type":"string","internalType":"string"},{"name":"amount","type":"uint256","internalType":"uint256"},{"name":"claimer","type":"address","internalType":"address"},{"name":"createdAt","type":"uint256","internalType":"uint256"},{"name":"claimId","type":"uint256","internalType":"uint256"}],"stateMutability":"view"},{"type":"function","name":"bountyClaims","inputs":[{"name":"","type":"uint256","internalType":"uint256"},{"name":"","type":"uint256","internalType":"uint256"}],"outputs":[{"name":"","type":"uint256","internalType":"uint256"}],"stateMutability":"view"},{"type":"function","name":"bountyCounter","inputs":[],"outputs":[{"name":"","type":"uint256","internalType":"uint256"}],"stateMutability":"view"},{"type":"function","name":"bountyCurrentVotingClaim","inputs":[{"name":"","type":"uint256","internalType":"uint256"}],"outputs":[{"name":"","type":"uint256","internalType":"uint256"}],"stateMutability":"view"},{"type":"function","name":"bountyVotingTracker","inputs":[{"name":"","type":"uint256","internalType":"uint256"}],"outputs":[{"name":"yes","type":"uint256","internalType":"uint256"},{"name":"no","type":"uint256","internalType":"uint256"},{"name":"deadline","type":"uint256","internalType":"uint256"}],"stateMutability":"view"},{"type":"function","name":"cancelOpenBounty","inputs":[{"name":"bountyId","type":"uint256","internalType":"uint256"}],"outputs":[],"stateMutability":"nonpayable"},{"type":"function","name":"cancelSoloBounty","inputs":[{"name":"bountyId","type":"uint256","internalType":"uint256"}],"outputs":[],"stateMutability":"nonpayable"},{"type":"function","name":"claimCounter","inputs":[],"outputs":[{"name":"","type":"uint256","internalType":"uint256"}],"stateMutability":"view"},{"type":"function","name":"claimRefundFromCancelledOpenBounty","inputs":[{"name":"bountyId","type":"uint256","internalType":"uint256"}],"outputs":[],"stateMutability":"nonpayable"},{"type":"function","name":"claims","inputs":[{"name":"","type":"uint256","internalType":"uint256"}],"outputs":[{"name":"id","type":"uint256","internalType":"uint256"},{"name":"issuer","type":"address","internalType":"address"},{"name":"bountyId","type":"uint256","internalType":"uint256"},{"name":"bountyIssuer","type":"address","internalType":"address"},{"name":"name","type":"string","internalType":"string"},{"name":"description","type":"string","internalType":"string"},{"name":"createdAt","type":"uint256","internalType":"uint256"},{"name":"accepted","type":"bool","internalType":"bool"}],"stateMutability":"view"},{"type":"function","name":"createClaim","inputs":[{"name":"bountyId","type":"uint256","internalType":"uint256"},{"name":"name","type":"string","internalType":"string"},{"name":"description","type":"string","internalType":"string"},{"name":"uri","type":"string","internalType":"string"}],"outputs":[],"stateMutability":"nonpayable"},{"type":"function","name":"createOpenBounty","inputs":[{"name":"name","type":"string","internalType":"string"},{"name":"description","type":"string","internalType":"string"}],"outputs":[],"stateMutability":"payable"},{"type":"function","name":"createSoloBounty","inputs":[{"name":"name","type":"string","internalType":"string"},{"name":"description","type":"string","internalType":"string"}],"outputs":[],"stateMutability":"payable"},{"type":"function","name":"everHadExternalContributor","inputs":[{"name":"","type":"uint256","internalType":"uint256"}],"outputs":[{"name":"","type":"bool","internalType":"bool"}],"stateMutability":"view"},{"type":"function","name":"getBounties","inputs":[{"name":"offset","type":"uint256","internalType":"uint256"}],"outputs":[{"name":"","type":"tuple[]","internalType":"struct PoidhV3.Bounty[]","components":[{"name":"id","type":"uint256","internalType":"uint256"},{"name":"issuer","type":"address","internalType":"address"},{"name":"name","type":"string","internalType":"string"},{"name":"description","type":"string","internalType":"string"},{"name":"amount","type":"uint256","internalType":"uint256"},{"name":"claimer","type":"address","internalType":"address"},{"name":"createdAt","type":"uint256","internalType":"uint256"},{"name":"claimId","type":"uint256","internalType":"uint256"}]}],"stateMutability":"view"},{"type":"function","name":"getBountiesByUser","inputs":[{"name":"user","type":"address","internalType":"address"},{"name":"offset","type":"uint256","internalType":"uint256"}],"outputs":[{"name":"","type":"tuple[]","internalType":"struct PoidhV3.Bounty[]","components":[{"name":"id","type":"uint256","internalType":"uint256"},{"name":"issuer","type":"address","internalType":"address"},{"name":"name","type":"string","internalType":"string"},{"name":"description","type":"string","internalType":"string"},{"name":"amount","type":"uint256","internalType":"uint256"},{"name":"claimer","type":"address","internalType":"address"},{"name":"createdAt","type":"uint256","internalType":"uint256"},{"name":"claimId","type":"uint256","internalType":"uint256"}]}],"stateMutability":"view"},{"type":"function","name":"getBountiesLength","inputs":[],"outputs":[{"name":"","type":"uint256","internalType":"uint256"}],"stateMutability":"view"},{"type":"function","name":"getClaimsByBountyId","inputs":[{"name":"bountyId","type":"uint256","internalType":"uint256"},{"name":"offset","type":"uint256","internalType":"uint256"}],"outputs":[{"name":"","type":"tuple[]","internalType":"struct PoidhV3.Claim[]","components":[{"name":"id","type":"uint256","internalType":"uint256"},{"name":"issuer","type":"address","internalType":"address"},{"name":"bountyId","type":"uint256","internalType":"uint256"},{"name":"bountyIssuer","type":"address","internalType":"address"},{"name":"name","type":"string","internalType":"string"},{"name":"description","type":"string","internalType":"string"},{"name":"createdAt","type":"uint256","internalType":"uint256"},{"name":"accepted","type":"bool","internalType":"bool"}]}],"stateMutability":"view"},{"type":"function","name":"getClaimsByUser","inputs":[{"name":"user","type":"address","internalType":"address"},{"name":"offset","type":"uint256","internalType":"uint256"}],"outputs":[{"name":"","type":"tuple[]","internalType":"struct PoidhV3.Claim[]","components":[{"name":"id","type":"uint256","internalType":"uint256"},{"name":"issuer","type":"address","internalType":"address"},{"name":"bountyId","type":"uint256","internalType":"uint256"},{"name":"bountyIssuer","type":"address","internalType":"address"},{"name":"name","type":"string","internalType":"string"},{"name":"description","type":"string","internalType":"string"},{"name":"createdAt","type":"uint256","internalType":"uint256"},{"name":"accepted","type":"bool","internalType":"bool"}]}],"stateMutability":"view"},{"type":"function","name":"getParticipants","inputs":[{"name":"bountyId","type":"uint256","internalType":"uint256"}],"outputs":[{"name":"","type":"address[]","internalType":"address[]"},{"name":"","type":"uint256[]","internalType":"uint256[]"}],"stateMutability":"view"},{"type":"function","name":"getParticipantsPaged","inputs":[{"name":"bountyId","type":"uint256","internalType":"uint256"},{"name":"offset","type":"uint256","internalType":"uint256"},{"name":"limit","type":"uint256","internalType":"uint256"}],"outputs":[{"name":"addrs","type":"address[]","internalType":"address[]"},{"name":"amts","type":"uint256[]","internalType":"uint256[]"}],"stateMutability":"view"},{"type":"function","name":"joinOpenBounty","inputs":[{"name":"bountyId","type":"uint256","internalType":"uint256"}],"outputs":[],"stateMutability":"payable"},{"type":"function","name":"owner","inputs":[],"outputs":[{"name":"","type":"address","internalType":"address"}],"stateMutability":"view"},{"type":"function","name":"participantAmounts","inputs":[{"name":"","type":"uint256","internalType":"uint256"},{"name":"","type":"uint256","internalType":"uint256"}],"outputs":[{"name":"","type":"uint256","internalType":"uint256"}],"stateMutability":"view"},{"type":"function","name":"participants","inputs":[{"name":"","type":"uint256","internalType":"uint256"},{"name":"","type":"uint256","internalType":"uint256"}],"outputs":[{"name":"","type":"address","internalType":"address"}],"stateMutability":"view"},{"type":"function","name":"pause","inputs":[],"outputs":[],"stateMutability":"nonpayable"},{"type":"function","name":"paused","inputs":[],"outputs":[{"name":"","type":"bool","internalType":"bool"}],"stateMutability":"view"},{"type":"function","name":"pendingOwner","inputs":[],"outputs":[{"name":"","type":"address","internalType":"address"}],"stateMutability":"view"},{"type":"function","name":"pendingWithdrawals","inputs":[{"name":"","type":"address","internalType":"address"}],"outputs":[{"name":"","type":"uint256","internalType":"uint256"}],"stateMutability":"view"},{"type":"function","name":"poidhNft","inputs":[],"outputs":[{"name":"","type":"address","internalType":"contract IPoidhClaimNFT"}],"stateMutability":"view"},{"type":"function","name":"renounceOwnership","inputs":[],"outputs":[],"stateMutability":"nonpayable"},{"type":"function","name":"resetVotingPeriod","inputs":[{"name":"bountyId","type":"uint256","internalType":"uint256"}],"outputs":[],"stateMutability":"nonpayable"},{"type":"function","name":"resolveVote","inputs":[{"name":"bountyId","type":"uint256","internalType":"uint256"}],"outputs":[],"stateMutability":"nonpayable"},{"type":"function","name":"submitClaimForVote","inputs":[{"name":"bountyId","type":"uint256","internalType":"uint256"},{"name":"claimId","type":"uint256","internalType":"uint256"}],"outputs":[],"stateMutability":"nonpayable"},{"type":"function","name":"transferOwnership","inputs":[{"name":"newOwner","type":"address","internalType":"address"}],"outputs":[],"stateMutability":"nonpayable"},{"type":"function","name":"treasury","inputs":[],"outputs":[{"name":"","type":"address","internalType":"address"}],"stateMutability":"view"},{"type":"function","name":"unpause","inputs":[],"outputs":[],"stateMutability":"nonpayable"},{"type":"function","name":"userBounties","inputs":[{"name":"","type":"address","internalType":"address"},{"name":"","type":"uint256","internalType":"uint256"}],"outputs":[{"name":"","type":"uint256","internalType":"uint256"}],"stateMutability":"view"},{"type":"function","name":"userClaims","inputs":[{"name":"","type":"address","internalType":"address"},{"name":"","type":"uint256","internalType":"uint256"}],"outputs":[{"name":"","type":"uint256","internalType":"uint256"}],"stateMutability":"view"},{"type":"function","name":"voteClaim","inputs":[{"name":"bountyId","type":"uint256","internalType":"uint256"},{"name":"vote","type":"bool","internalType":"bool"}],"outputs":[],"stateMutability":"nonpayable"},{"type":"function","name":"voteRound","inputs":[{"name":"","type":"uint256","internalType":"uint256"}],"outputs":[{"name":"","type":"uint256","internalType":"uint256"}],"stateMutability":"view"},{"type":"function","name":"votingPeriod","inputs":[],"outputs":[{"name":"","type":"uint256","internalType":"uint256"}],"stateMutability":"view"},{"type":"function","name":"withdraw","inputs":[],"outputs":[],"stateMutability":"nonpayable"},{"type":"function","name":"withdrawFromOpenBounty","inputs":[{"name":"bountyId","type":"uint256","internalType":"uint256"}],"outputs":[],"stateMutability":"nonpayable"},{"type":"event","name":"BountyCancelled","inputs":[{"name":"bountyId","type":"uint256","indexed":true,"internalType":"uint256"},{"name":"issuer","type":"address","indexed":true,"internalType":"address"},{"name":"issuerRefund","type":"uint256","indexed":false,"internalType":"uint256"}],"anonymous":false},{"type":"event","name":"BountyCreated","inputs":[{"name":"id","type":"uint256","indexed":true,"internalType":"uint256"},{"name":"issuer","type":"address","indexed":true,"internalType":"address"},{"name":"name","type":"string","indexed":false,"internalType":"string"},{"name":"description","type":"string","indexed":false,"internalType":"string"},{"name":"amount","type":"uint256","indexed":false,"internalType":"uint256"},{"name":"createdAt","type":"uint256","indexed":false,"internalType":"uint256"}],"anonymous":false},{"type":"event","name":"BountyJoined","inputs":[{"name":"bountyId","type":"uint256","indexed":true,"internalType":"uint256"},{"name":"participant","type":"address","indexed":true,"internalType":"address"},{"name":"amount","type":"uint256","indexed":false,"internalType":"uint256"}],"anonymous":false},{"type":"event","name":"ClaimAccepted","inputs":[{"name":"bountyId","type":"uint256","indexed":true,"internalType":"uint256"},{"name":"claimId","type":"uint256","indexed":true,"internalType":"uint256"},{"name":"claimIssuer","type":"address","indexed":true,"internalType":"address"},{"name":"bountyIssuer","type":"address","indexed":false,"internalType":"address"},{"name":"bountyAmount","type":"uint256","indexed":false,"internalType":"uint256"},{"name":"payout","type":"uint256","indexed":false,"internalType":"uint256"},{"name":"fee","type":"uint256","indexed":false,"internalType":"uint256"}],"anonymous":false},{"type":"event","name":"ClaimCreated","inputs":[{"name":"id","type":"uint256","indexed":true,"internalType":"uint256"},{"name":"issuer","type":"address","indexed":true,"internalType":"address"},{"name":"bountyId","type":"uint256","indexed":true,"internalType":"uint256"},{"name":"bountyIssuer","type":"address","indexed":false,"internalType":"address"},{"name":"name","type":"string","indexed":false,"internalType":"string"},{"name":"description","type":"string","indexed":false,"internalType":"string"},{"name":"createdAt","type":"uint256","indexed":false,"internalType":"uint256"}],"anonymous":false},{"type":"event","name":"ClaimSubmittedForVote","inputs":[{"name":"bountyId","type":"uint256","indexed":true,"internalType":"uint256"},{"name":"claimId","type":"uint256","indexed":true,"internalType":"uint256"}],"anonymous":false},{"type":"event","name":"OwnershipTransferStarted","inputs":[{"name":"previousOwner","type":"address","indexed":true,"internalType":"address"},{"name":"newOwner","type":"address","indexed":true,"internalType":"address"}],"anonymous":false},{"type":"event","name":"OwnershipTransferred","inputs":[{"name":"previousOwner","type":"address","indexed":true,"internalType":"address"},{"name":"newOwner","type":"address","indexed":true,"internalType":"address"}],"anonymous":false},{"type":"event","name":"Paused","inputs":[{"name":"account","type":"address","indexed":false,"internalType":"address"}],"anonymous":false},{"type":"event","name":"RefundClaimed","inputs":[{"name":"bountyId","type":"uint256","indexed":true,"internalType":"uint256"},{"name":"participant","type":"address","indexed":true,"internalType":"address"},{"name":"amount","type":"uint256","indexed":false,"internalType":"uint256"}],"anonymous":false},{"type":"event","name":"ResetVotingPeriod","inputs":[{"name":"bountyId","type":"uint256","indexed":true,"internalType":"uint256"}],"anonymous":false},{"type":"event","name":"Unpaused","inputs":[{"name":"account","type":"address","indexed":false,"internalType":"address"}],"anonymous":false},{"type":"event","name":"VoteCast","inputs":[{"name":"voter","type":"address","indexed":true,"internalType":"address"},{"name":"bountyId","type":"uint256","indexed":true,"internalType":"uint256"},{"name":"claimId","type":"uint256","indexed":true,"internalType":"uint256"},{"name":"support","type":"bool","indexed":false,"internalType":"bool"},{"name":"weight","type":"uint256","indexed":false,"internalType":"uint256"}],"anonymous":false},{"type":"event","name":"VoteClaim","inputs":[{"name":"voter","type":"address","indexed":true,"internalType":"address"},{"name":"bountyId","type":"uint256","indexed":true,"internalType":"uint256"},{"name":"claimId","type":"uint256","indexed":true,"internalType":"uint256"}],"anonymous":false},{"type":"event","name":"VotingResolved","inputs":[{"name":"bountyId","type":"uint256","indexed":true,"internalType":"uint256"},{"name":"claimId","type":"uint256","indexed":true,"internalType":"uint256"},{"name":"passed","type":"bool","indexed":false,"internalType":"bool"},{"name":"yes","type":"uint256","indexed":false,"internalType":"uint256"},{"name":"no","type":"uint256","indexed":false,"internalType":"uint256"}],"anonymous":false},{"type":"event","name":"VotingStarted","inputs":[{"name":"bountyId","type":"uint256","indexed":true,"internalType":"uint256"},{"name":"claimId","type":"uint256","indexed":true,"internalType":"uint256"},{"name":"deadline","type":"uint256","indexed":false,"internalType":"uint256"},{"name":"issuerYesWeight","type":"uint256","indexed":false,"internalType":"uint256"}],"anonymous":false},{"type":"event","name":"WithdrawFromOpenBounty","inputs":[{"name":"bountyId","type":"uint256","indexed":true,"internalType":"uint256"},{"name":"participant","type":"address","indexed":true,"internalType":"address"},{"name":"amount","type":"uint256","indexed":false,"internalType":"uint256"}],"anonymous":false},{"type":"event","name":"Withdrawal","inputs":[{"name":"user","type":"address","indexed":true,"internalType":"address"},{"name":"amount","type":"uint256","indexed":false,"internalType":"uint256"}],"anonymous":false},{"type":"error","name":"AlreadyVoted","inputs":[]},{"type":"error","name":"BountyClaimed","inputs":[]},{"type":"error","name":"BountyClosed","inputs":[]},{"type":"error","name":"BountyNotFound","inputs":[]},{"type":"error","name":"ClaimAlreadyAccepted","inputs":[]},{"type":"error","name":"ClaimNotFound","inputs":[]},{"type":"error","name":"EnforcedPause","inputs":[]},{"type":"error","name":"ExpectedPause","inputs":[]},{"type":"error","name":"InsufficientBalance","inputs":[]},{"type":"error","name":"InvalidStartClaimIndex","inputs":[]},{"type":"error","name":"IssuerCannotClaim","inputs":[]},{"type":"error","name":"IssuerCannotWithdraw","inputs":[]},{"type":"error","name":"MaxParticipantsReached","inputs":[]},{"type":"error","name":"MinimumBountyNotMet","inputs":[]},{"type":"error","name":"NoEther","inputs":[]},{"type":"error","name":"NoVotingPeriodSet","inputs":[]},{"type":"error","name":"NotActiveParticipant","inputs":[]},{"type":"error","name":"NotCancelledOpenBounty","inputs":[]},{"type":"error","name":"NotOpenBounty","inputs":[]},{"type":"error","name":"NotSoloBounty","inputs":[]},{"type":"error","name":"NothingToWithdraw","inputs":[]},{"type":"error","name":"OwnableInvalidOwner","inputs":[{"name":"owner","type":"address","internalType":"address"}]},{"type":"error","name":"OwnableUnauthorizedAccount","inputs":[{"name":"account","type":"address","internalType":"address"}]},{"type":"error","name":"ReentrancyGuardReentrantCall","inputs":[]},{"type":"error","name":"TransferFailed","inputs":[]},{"type":"error","name":"VoteWouldPass","inputs":[]},{"type":"error","name":"VotingEnded","inputs":[]},{"type":"error","name":"VotingOngoing","inputs":[]},{"type":"error","name":"WrongCaller","inputs":[]}],"bytecode":{"object":"0x60c06040526202a30060025534801562000017575f80fd5b50604051620053ae380380620053ae8339810160408190526200003a9162000333565b60017f9b779b17422d0df92223018b32b4d1fa46e071723d6817e2486d003becc55f005533806200008457604051631e4fbdf760e01b81525f600482015260240160405180910390fd5b6200008f81620002aa565b506001600160a01b038216620000b85760405163068690bf60e11b815260040160405180910390fd5b805f03620000d95760405163685a3adb60e01b815260040160405180910390fd5b6001600160a01b0380841660a052821660805260068190555f5b81811015620002a05760408051610100810182528281525f6020808301828152838501838152606085018481528651808501885285815260808701908152875194850190975284845260a086019390935260c0850184905260e08501849052600480546001810182559452845160089094027f8a35acfbc15ff81a39ae7d344fd709f28e8600b4aa8c65c6b64bfe7fe36bd19b810194855591517f8a35acfbc15ff81a39ae7d344fd709f28e8600b4aa8c65c6b64bfe7fe36bd19c830180546001600160a01b039283166001600160a01b03199182161790915591517f8a35acfbc15ff81a39ae7d344fd709f28e8600b4aa8c65c6b64bfe7fe36bd19d84015592517f8a35acfbc15ff81a39ae7d344fd709f28e8600b4aa8c65c6b64bfe7fe36bd19e83018054919094169116179091559251919290917f8a35acfbc15ff81a39ae7d344fd709f28e8600b4aa8c65c6b64bfe7fe36bd19f909101906200025b90826200040f565b5060a082015160058201906200027290826200040f565b5060c0820151600682015560e0909101516007909101805460ff1916911515919091179055600101620000f3565b50505050620004db565b600180546001600160a01b0319169055620002c581620002c8565b50565b5f80546001600160a01b038381166001600160a01b0319831681178455604051919092169283917f8be0079c531659141344cd1fd0a4f28419497f9722a3daafe3b4186f6b6457e09190a35050565b80516001600160a01b03811681146200032e575f80fd5b919050565b5f805f6060848603121562000346575f80fd5b620003518462000317565b9250620003616020850162000317565b9150604084015190509250925092565b634e487b7160e01b5f52604160045260245ffd5b600181811c908216806200039a57607f821691505b602082108103620003b957634e487b7160e01b5f52602260045260245ffd5b50919050565b601f8211156200040a57805f5260205f20601f840160051c81016020851015620003e65750805b601f840160051c820191505b8181101562000407575f8155600101620003f2565b50505b505050565b81516001600160401b038111156200042b576200042b62000371565b62000443816200043c845462000385565b84620003bf565b602080601f83116001811462000479575f8415620004615750858301515b5f19600386901b1c1916600185901b178555620004d3565b5f85815260208120601f198616915b82811015620004a95788860151825594840194600190910190840162000488565b5085821015620004c757878501515f19600388901b60f8161c191681555b505060018460011b0185555b505050505050565b60805160a051614e9c620005125f395f818161041101528181611d6f015261404c01525f818161056a0152613f7a0152614e9c5ff3fe6080604052600436106102c2575f3560e01c80638c1d93c51161016f578063c1e3bd3e116100d8578063e30c397811610092578063f39037591161006d578063f3903759146108c9578063f3baf070146108e8578063f3f43703146108fc578063faf0f5e914610927575f80fd5b8063e30c397814610879578063ec9a01fe14610896578063f2fde38b146108aa575f80fd5b8063c1e3bd3e146107bc578063ca9748ea146107db578063d496ec7a146107fa578063d4ea422714610819578063d56705251461082c578063dc2f874414610846575f80fd5b8063ad33fa4911610129578063ad33fa49146106f1578063b03a50c714610710578063b04f5ebd1461073c578063b1b4be971461076a578063b7c8994d14610789578063bf333f2c146107a8575f80fd5b80638c1d93c5146106485780638da5cb5b1461065b5780639e9251c814610677578063a0d5978714610696578063a888c2cd146106ab578063a9b2c6eb146106de575f80fd5b80633ccfd60b1161022b5780636351accd116101e557806379ba5097116101c057806379ba5097146105e257806381fb1fb4146105f657806383ffc9f2146106155780638456cb5914610634575f80fd5b80636351accd1461058c5780636637e38c146105b9578063715018a6146105ce575f80fd5b80633ccfd60b146104d35780633f4ba83a146104e75780634efa8f17146104fb578063593b0d26146105105780635c975abb1461052f57806361d027b314610559575f80fd5b80632455a9c61161027c5780632455a9c6146103d55780632b270d31146104005780632b9234b91461044b57806330f4ccac1461046a5780633441483514610489578063383d6d43146104a8575f80fd5b806302a251a3146102cd5780630e122a78146102f557806310b385c214610321578063136655c8146103765780631d260f8e14610395578063240b727e146103b6575f80fd5b366102c957005b5f80fd5b3480156102d8575f80fd5b506102e260025481565b6040519081526020015b60405180910390f35b348015610300575f80fd5b5061031461030f366004614610565b610946565b6040516102ec919061467b565b34801561032c575f80fd5b5061035b61033b36600461475c565b600d6020525f908152604090208054600182015460029092015490919083565b604080519384526020840192909252908201526060016102ec565b348015610381575f80fd5b506102e2610390366004614773565b610c3e565b3480156103a0575f80fd5b506103b46103af366004614773565b610c69565b005b3480156103c1575f80fd5b506103b46103d036600461475c565b610f3e565b3480156103e0575f80fd5b506102e26103ef36600461475c565b600e6020525f908152604090205481565b34801561040b575f80fd5b506104337f000000000000000000000000000000000000000000000000000000000000000081565b6040516001600160a01b0390911681526020016102ec565b348015610456575f80fd5b506102e2610465366004614610565b6111d7565b348015610475575f80fd5b506103b461048436600461475c565b6111f0565b348015610494575f80fd5b506102e26104a3366004614773565b611396565b3480156104b3575f80fd5b506102e26104c236600461475c565b600c6020525f908152604090205481565b3480156104de575f80fd5b506103b46113af565b3480156104f2575f80fd5b506103b46114a5565b348015610506575f80fd5b506102e260065481565b34801561051b575f80fd5b5061031461052a36600461475c565b6114b5565b34801561053a575f80fd5b50600154600160a01b900460ff165b60405190151581526020016102ec565b348015610564575f80fd5b506104337f000000000000000000000000000000000000000000000000000000000000000081565b348015610597575f80fd5b506105ab6105a6366004614793565b61170f565b6040516102ec9291906147bc565b3480156105c4575f80fd5b506102e261271081565b3480156105d9575f80fd5b506103b4611964565b3480156105ed575f80fd5b506103b4611975565b348015610601575f80fd5b50610433610610366004614773565b6119bb565b348015610620575f80fd5b506103b461062f366004614883565b6119ef565b34801561063f575f80fd5b506103b4611e94565b6103b461065636600461491f565b611ea4565b348015610666575f80fd5b505f546001600160a01b0316610433565b348015610682575f80fd5b506103b4610691366004614773565b611f7a565b3480156106a1575f80fd5b506102e260055481565b3480156106b6575f80fd5b506106ca6106c536600461475c565b612574565b6040516102ec989796959493929190614986565b6103b46106ec36600461475c565b6126e5565b3480156106fc575f80fd5b506103b461070b36600461475c565b6129cb565b34801561071b575f80fd5b5061072f61072a366004614773565b612b7f565b6040516102ec91906149f0565b348015610747575f80fd5b5061054961075636600461475c565b60116020525f908152604090205460ff1681565b348015610775575f80fd5b506103b461078436600461475c565b612e52565b348015610794575f80fd5b506103b46107a3366004614ad2565b612f72565b3480156107b3575f80fd5b506102e260fa81565b3480156107c7575f80fd5b506105ab6107d636600461475c565b61324d565b3480156107e6575f80fd5b506102e26107f5366004614610565b613317565b348015610805575f80fd5b506103b461081436600461475c565b613330565b6103b461082736600461491f565b6134f1565b348015610837575f80fd5b506102e266038d7ea4c6800081565b348015610851575f80fd5b5061086561086036600461475c565b61355e565b6040516102ec989796959493929190614b04565b348015610884575f80fd5b506001546001600160a01b0316610433565b3480156108a1575f80fd5b506003546102e2565b3480156108b5575f80fd5b506103b46108c4366004614b6c565b6136d2565b3480156108d4575f80fd5b5061072f6108e3366004614610565b613742565b3480156108f3575f80fd5b506102e2606481565b348015610907575f80fd5b506102e2610916366004614b6c565b60126020525f908152604090205481565b348015610932575f80fd5b506103b461094136600461475c565b613a1f565b6001600160a01b0382165f9081526007602090815260408083208054825181850281018501909352808352606094938301828280156109a257602002820191905f5260205f20905b81548152602001906001019080831161098e575b505050505090505f600a67ffffffffffffffff8111156109c4576109c4614b8c565b6040519080825280602002602001820160405280156109fd57816020015b6109ea614551565b8152602001906001900390816109e25790505b5082519091505f905b8581118015610a155750600a82105b15610c3157600384610a28600184614bb4565b81518110610a3857610a38614bc7565b602002602001015181548110610a5057610a50614bc7565b905f5260205f209060080201604051806101000160405290815f8201548152602001600182015f9054906101000a90046001600160a01b03166001600160a01b03166001600160a01b03168152602001600282018054610aaf90614bdb565b80601f0160208091040260200160405190810160405280929190818152602001828054610adb90614bdb565b8015610b265780601f10610afd57610100808354040283529160200191610b26565b820191905f5260205f20905b815481529060010190602001808311610b0957829003601f168201915b50505050508152602001600382018054610b3f90614bdb565b80601f0160208091040260200160405190810160405280929190818152602001828054610b6b90614bdb565b8015610bb65780601f10610b8d57610100808354040283529160200191610bb6565b820191905f5260205f20905b815481529060010190602001808311610b9957829003601f168201915b50505091835250506004820154602082015260058201546001600160a01b03166040820152600682015460608201526007909101546080909101528351849084908110610c0557610c05614bc7565b60200260200101819052508180610c1b90614c13565b9250508080610c2990614c2b565b915050610a06565b5090925050505b92915050565b600b602052815f5260405f208181548110610c57575f80fd5b905f5260205f20015f91509150505481565b610c71613c75565b610c79613ca3565b81610c8381613cce565b6006548210610ca55760405163022af77760e11b815260040160405180910390fd5b5f60038481548110610cb957610cb9614bc7565b905f5260205f209060080201604051806101000160405290815f8201548152602001600182015f9054906101000a90046001600160a01b03166001600160a01b03166001600160a01b03168152602001600282018054610d1890614bdb565b80601f0160208091040260200160405190810160405280929190818152602001828054610d4490614bdb565b8015610d8f5780601f10610d6657610100808354040283529160200191610d8f565b820191905f5260205f20905b815481529060010190602001808311610d7257829003601f168201915b50505050508152602001600382018054610da890614bdb565b80601f0160208091040260200160405190810160405280929190818152602001828054610dd490614bdb565b8015610e1f5780601f10610df657610100808354040283529160200191610e1f565b820191905f5260205f20905b815481529060010190602001808311610e0257829003601f168201915b5050509183525050600482015460208083019190915260058301546001600160a01b0316604080840191909152600684015460608401526007909301546080909201919091525f878152600a9091529081205491925003610ec05780602001516001600160a01b0316336001600160a01b031614610eb05760405163068690bf60e11b815260040160405180910390fd5b610eba8484613da4565b50610f31565b5f8481526011602052604090205460ff1615610eef576040516310c2a11b60e01b815260040160405180910390fd5b80602001516001600160a01b0316336001600160a01b031614610f255760405163068690bf60e11b815260040160405180910390fd5b610f2f8484613da4565b505b50610f3a614104565b5050565b610f46613c75565b610f4e613ca3565b6005548110610f70576040516324ce57e760e21b815260040160405180910390fd5b5f60038281548110610f8457610f84614bc7565b5f9182526020808320858452600a909152604083205460089092020192509003610fc1576040516353480bcb60e11b815260040160405180910390fd5b600181015460058201546001600160a01b03908116911614610ff657604051630dcd2fc960e41b815260040160405180910390fd5b5f8281526010602090815260408083203384529091528120549081900361103057604051632fb19d7760e01b815260040160405180910390fd5b5f61103c600183614bb4565b5f858152600a60205260409020805491925033918390811061106057611060614bc7565b5f918252602090912001546001600160a01b03161461109257604051632fb19d7760e01b815260040160405180910390fd5b5f848152600b602052604081208054839081106110b1576110b1614bc7565b905f5260205f2001549050805f036110dc57604051632fb19d7760e01b815260040160405180910390fd5b5f858152600b602052604081208054849081106110fb576110fb614bc7565b905f5260205f2001819055505f600a5f8781526020019081526020015f20838154811061112a5761112a614bc7565b905f5260205f20015f6101000a8154816001600160a01b0302191690836001600160a01b0316021790555080846004015f8282546111689190614bb4565b9091555050335f908152601260205260408120805483929061118b908490614c40565b9091555050604051818152339086907ff3f402280ef0a7905e124aa621b65eaeb2725c343e8b36d398ed78c29daf285c906020015b60405180910390a3505050506111d4614104565b50565b6007602052815f5260405f208181548110610c57575f80fd5b6111f8613c75565b611200613ca3565b5f818152600a6020526040812054900361122d576040516353480bcb60e11b815260040160405180910390fd5b5f818152600c60205260408120549081900361125c57604051636e24219160e01b815260040160405180910390fd5b5f828152600d602090815260409182902082516060810184528154815260018201549281019290925260020154918101829052904210156112b057604051635b64ca4160e11b815260040160405180910390fd5b5f6002825f015183602001516112c69190614c40565b6112d09190614c53565b825111905080156112ea576112e58484613da4565b61138b565b5f848152600c60209081526040808320839055600d909152808220828155600181018390556002018290555185917f683af77c9b53e899cac3d8596c0b5ec27b84a9e006d0a816e2030e921dee05b591a28151602080840151604080515f81529283019390935291810191909152839085907fbd3b85774c6d6de13de05b2a82617564efb983fe1d18fe467f4d0566d0e18ba9906060015b60405180910390a35b5050506111d4614104565b6009602052815f5260405f208181548110610c57575f80fd5b6113b7613c75565b6113bf613ca3565b335f90815260126020526040812054908190036113ef57604051630686827b60e51b815260040160405180910390fd5b335f818152601260205260408082208290555190919083908381818185875af1925050503d805f811461143d576040519150601f19603f3d011682016040523d82523d5f602084013e611442565b606091505b5050905080611464576040516312171d8360e31b815260040160405180910390fd5b60405182815233907f7fcf532c15f0a6db0bd6d0e038bea71d30d808c7d98cb3bf7268a95bf5081b659060200160405180910390a250506114a3614104565b565b6114ad61412a565b6114a3614156565b60408051600a80825261016082019092526060915f9190816020015b6114d9614551565b8152602001906001900390816114d15750506003549091505f905b84811180156115035750600a82105b15611706576003611515600183614bb4565b8154811061152557611525614bc7565b905f5260205f209060080201604051806101000160405290815f8201548152602001600182015f9054906101000a90046001600160a01b03166001600160a01b03166001600160a01b0316815260200160028201805461158490614bdb565b80601f01602080910402602001604051908101604052809291908181526020018280546115b090614bdb565b80156115fb5780601f106115d2576101008083540402835291602001916115fb565b820191905f5260205f20905b8154815290600101906020018083116115de57829003601f168201915b5050505050815260200160038201805461161490614bdb565b80601f016020809104026020016040519081016040528092919081815260200182805461164090614bdb565b801561168b5780601f106116625761010080835404028352916020019161168b565b820191905f5260205f20905b81548152906001019060200180831161166e57829003601f168201915b50505091835250506004820154602082015260058201546001600160a01b031660408201526006820154606082015260079091015460809091015283518490849081106116da576116da614bc7565b602002602001018190525081806116f090614c13565b92505080806116fe90614c2b565b9150506114f4565b50909392505050565b6060805f600a5f8781526020019081526020015f2080548060200260200160405190810160405280929190818152602001828054801561177657602002820191905f5260205f20905b81546001600160a01b03168152600190910190602001808311611758575b505050505090505f600b5f8881526020019081526020015f208054806020026020016040519081016040528092919081815260200182805480156117d757602002820191905f5260205f20905b8154815260200190600101908083116117c3575b5050505050905081518610611806575050604080515f808252602082019081528183019092529250905061195c565b5f6118118688614c40565b90508251811115611820575081515b5f61182b8883614bb4565b90508067ffffffffffffffff81111561184657611846614b8c565b60405190808252806020026020018201604052801561186f578160200160208202803683370190505b5095508067ffffffffffffffff81111561188b5761188b614b8c565b6040519080825280602002602001820160405280156118b4578160200160208202803683370190505b5094505f5b8181101561195657846118cc828b614c40565b815181106118dc576118dc614bc7565b60200260200101518782815181106118f6576118f6614bc7565b6001600160a01b039092166020928302919091019091015283611919828b614c40565b8151811061192957611929614bc7565b602002602001015186828151811061194357611943614bc7565b60209081029190910101526001016118b9565b50505050505b935093915050565b61196c61412a565b6114a35f6141ab565b60015433906001600160a01b031681146119b25760405163118cdaa760e01b81526001600160a01b03821660048201526024015b60405180910390fd5b6111d4816141ab565b600a602052815f5260405f2081815481106119d4575f80fd5b5f918252602090912001546001600160a01b03169150829050565b6119f7613c75565b6119ff613ca3565b86611a0981613cce565b5f60038981548110611a1d57611a1d614bc7565b905f5260205f209060080201604051806101000160405290815f8201548152602001600182015f9054906101000a90046001600160a01b03166001600160a01b03166001600160a01b03168152602001600282018054611a7c90614bdb565b80601f0160208091040260200160405190810160405280929190818152602001828054611aa890614bdb565b8015611af35780601f10611aca57610100808354040283529160200191611af3565b820191905f5260205f20905b815481529060010190602001808311611ad657829003601f168201915b50505050508152602001600382018054611b0c90614bdb565b80601f0160208091040260200160405190810160405280929190818152602001828054611b3890614bdb565b8015611b835780601f10611b5a57610100808354040283529160200191611b83565b820191905f5260205f20905b815481529060010190602001808311611b6657829003601f168201915b5050509183525050600482015460208083019190915260058301546001600160a01b03908116604084015260068401546060840152600790930154608090920191909152820151919250163303611bed576040516347b05d8560e11b815260040160405180910390fd5b5f60065490506004604051806101000160405280838152602001336001600160a01b031681526020018c815260200184602001516001600160a01b031681526020018b8b8080601f0160208091040260200160405190810160405280939291908181526020018383808284375f92019190915250505090825250604080516020601f8c018190048102820181019092528a815291810191908b908b90819084018382808284375f920182905250938552505042602080850191909152604093840183905285546001808201885596845292819020855160089094020192835584015194820180546001600160a01b03199081166001600160a01b0397881617909155928401516002830155506060830151600382018054909316941693909317905560808101519091906004820190611d269082614cbe565b5060a08201516005820190611d3b9082614cbe565b5060c0820151600682015560e0909101516007909101805460ff1916911515919091179055604051632b421f6760e11b81527f00000000000000000000000000000000000000000000000000000000000000006001600160a01b0316906356843ece90611db090849089908990600401614da6565b5f604051808303815f87803b158015611dc7575f80fd5b505af1158015611dd9573d5f803e3d5ffd5b5050335f908152600860209081526040808320805460018181018355918552838520018790558f845260098352908320805491820181558352908220018490556006805493509150611e2a83614c13565b919050555089336001600160a01b0316827f8a181854d9e4089e919a5426d2781d33ce515555f29d3392a43f0a4a4a5e1ff285602001518d8d8d8d42604051611e7896959493929190614dc8565b60405180910390a4505050611e8b614104565b50505050505050565b611e9c61412a565b6114a36141c4565b611eac613c75565b611eb4613ca3565b345f03611ed45760405163a4675adf60e01b815260040160405180910390fd5b66038d7ea4c68000341015611efc57604051630fa2e38d60e01b815260040160405180910390fd5b5f611f0985858585614207565b5f818152600a602090815260408083208054600181810183559185528385200180546001600160a01b03191633908117909155858552600b84528285208054808401825590865284862034910155948452601083528184209484529390915290205550611f74614104565b50505050565b611f82613c75565b611f8a613ca3565b81611f9481613cce565b82611f9e816143ec565b6006548310611fc05760405163022af77760e11b815260040160405180910390fd5b5f60038581548110611fd457611fd4614bc7565b905f5260205f209060080201604051806101000160405290815f8201548152602001600182015f9054906101000a90046001600160a01b03166001600160a01b03166001600160a01b0316815260200160028201805461203390614bdb565b80601f016020809104026020016040519081016040528092919081815260200182805461205f90614bdb565b80156120aa5780601f10612081576101008083540402835291602001916120aa565b820191905f5260205f20905b81548152906001019060200180831161208d57829003601f168201915b505050505081526020016003820180546120c390614bdb565b80601f01602080910402602001604051908101604052809291908181526020018280546120ef90614bdb565b801561213a5780601f106121115761010080835404028352916020019161213a565b820191905f5260205f20905b81548152906001019060200180831161211d57829003601f168201915b5050509183525050600482015460208083019190915260058301546001600160a01b039081166040840152600684015460608401526007909301546080909201919091528201519192501633146121a45760405163068690bf60e11b815260040160405180910390fd5b5f600485815481106121b8576121b8614bc7565b5f918252602091829020604080516101008101825260089093029091018054835260018101546001600160a01b03908116948401949094526002810154918301919091526003810154909216606082015260048201805491929160808401919061222190614bdb565b80601f016020809104026020016040519081016040528092919081815260200182805461224d90614bdb565b80156122985780601f1061226f57610100808354040283529160200191612298565b820191905f5260205f20905b81548152906001019060200180831161227b57829003601f168201915b505050505081526020016005820180546122b190614bdb565b80601f01602080910402602001604051908101604052809291908181526020018280546122dd90614bdb565b80156123285780601f106122ff57610100808354040283529160200191612328565b820191905f5260205f20905b81548152906001019060200180831161230b57829003601f168201915b5050509183525050600682015460208083019190915260079092015460ff1615156040909101528101519091506001600160a01b031661237b5760405163022af77760e11b815260040160405180910390fd5b8581604001511461239f5760405163022af77760e11b815260040160405180910390fd5b8060e00151156123c25760405163688f4def60e11b815260040160405180910390fd5b5f868152600e602052604081208054600192906123e0908490614c40565b90915550505f868152600e6020908152604080832054600b90925282208054919291829061241057612410614bc7565b905f5260205f2001549050805f0361243b57604051632fb19d7760e01b815260040160405180910390fd5b86600c5f8a81526020019081526020015f208190555060405180606001604052808281526020015f8152602001600254426124769190614c40565b90525f898152600d602090815260408083208451815584830151600182015593810151600290940193909355600f81528282203383529052818120849055905188918a917fd3608dc8a92a033904c83e7341c3a5ccae067af3c1604e0a731fb44db320b9109190a386887fe96d1057df54007b72c3feb25ee2f724e3c2e8ca8bca89c3147040e0ffdc07556002544261250f9190614c40565b60408051918252602082018690520160405180910390a360408051600181526020810183905288918a9133917fe89c99a0264d21c2ad18316d6e7b3aa31414c12f31b085afdeeacaa7e69f80b6910160405180910390a4505050505050610f3a614104565b60048181548110612583575f80fd5b5f918252602090912060089091020180546001820154600283015460038401546004850180549496506001600160a01b0393841695929493909116926125c890614bdb565b80601f01602080910402602001604051908101604052809291908181526020018280546125f490614bdb565b801561263f5780601f106126165761010080835404028352916020019161263f565b820191905f5260205f20905b81548152906001019060200180831161262257829003601f168201915b50505050509080600501805461265490614bdb565b80601f016020809104026020016040519081016040528092919081815260200182805461268090614bdb565b80156126cb5780601f106126a2576101008083540402835291602001916126cb565b820191905f5260205f20905b8154815290600101906020018083116126ae57829003601f168201915b50505050600683015460079093015491929160ff16905088565b6126ed613c75565b6126f5613ca3565b806126ff81613cce565b81612709816143ec565b345f036127295760405163a4675adf60e01b815260040160405180910390fd5b5f6003848154811061273d5761273d614bc7565b5f918252602090912060089091020160018101549091506001600160a01b0316330361277c5760405163068690bf60e11b815260040160405180910390fd5b5f848152600a6020526040902080546064116127ab57604051636c8c8d2160e01b815260040160405180910390fd5b5f8581526010602090815260408083203384529091528120549081900361282b578154600181810184555f848152602080822090930180546001600160a01b03191633908117909155898252600b845260408083208054948501815583528483203494019390935585548a83526010855283832091835293522055612955565b5f612837600183614bb4565b5f888152600a60205260408120805492935090918390811061285b5761285b614bc7565b5f918252602090912001546001600160a01b0316036128c2575f878152600a6020526040902080543391908390811061289657612896614bc7565b905f5260205f20015f6101000a8154816001600160a01b0302191690836001600160a01b031602179055505b5f878152600a602052604090208054339190839081106128e4576128e4614bc7565b5f918252602090912001546001600160a01b03161461291657604051632fb19d7760e01b815260040160405180910390fd5b5f878152600b6020526040902080543491908390811061293857612938614bc7565b905f5260205f20015f82825461294e9190614c40565b9091555050505b5f868152601160205260408120805460ff19166001179055600484018054349290612981908490614c40565b9091555050604051348152339087907f22917cd092c8998d89d6269987ba4a153018855ce4ae6bffe0fa9d5ec2f1b39f906020015b60405180910390a350505050506111d4614104565b6129d3613c75565b6129db613ca3565b806129e581614419565b816129ef8161443b565b5f838152600a60205260408120549003612a1c576040516353480bcb60e11b815260040160405180910390fd5b5f838152600c602052604081205490819003612a4b57604051636e24219160e01b815260040160405180910390fd5b5f848152600d60209081526040918290208251606081018452815481526001820154928101929092526002015491810182905290421015612a9f57604051635b64ca4160e11b815260040160405180910390fd5b5f6002825f01518360200151612ab59190614c40565b612abf9190614c53565b82511190508015612ae35760405163044abae360e11b815260040160405180910390fd5b5f868152600c60209081526040808320839055600d909152808220828155600181018390556002018290555187917f683af77c9b53e899cac3d8596c0b5ec27b84a9e006d0a816e2030e921dee05b591a28151602080840151604080515f81529283019390935291810191909152839087907fbd3b85774c6d6de13de05b2a82617564efb983fe1d18fe467f4d0566d0e18ba9906060016129b6565b5f828152600960209081526040808320805482518185028101850190935280835260609493830182828015612bd157602002820191905f5260205f20905b815481526020019060010190808311612bbd575b505050505090505f600a67ffffffffffffffff811115612bf357612bf3614b8c565b604051908082528060200260200182016040528015612c2c57816020015b612c196145a2565b815260200190600190039081612c115790505b5082519091505f905b8581118015612c445750600a82105b15610c3157600484612c57600184614bb4565b81518110612c6757612c67614bc7565b602002602001015181548110612c7f57612c7f614bc7565b5f918252602091829020604080516101008101825260089093029091018054835260018101546001600160a01b039081169484019490945260028101549183019190915260038101549092166060820152600482018054919291608084019190612ce890614bdb565b80601f0160208091040260200160405190810160405280929190818152602001828054612d1490614bdb565b8015612d5f5780601f10612d3657610100808354040283529160200191612d5f565b820191905f5260205f20905b815481529060010190602001808311612d4257829003601f168201915b50505050508152602001600582018054612d7890614bdb565b80601f0160208091040260200160405190810160405280929190818152602001828054612da490614bdb565b8015612def5780601f10612dc657610100808354040283529160200191612def565b820191905f5260205f20905b815481529060010190602001808311612dd257829003601f168201915b50505091835250506006820154602082015260079091015460ff1615156040909101528351849084908110612e2657612e26614bc7565b60200260200101819052508180612e3c90614c13565b9250508080612e4a90614c2b565b915050612c35565b612e5a613c75565b612e62613ca3565b80612e6c81613cce565b5f828152600a602052604090205415612e98576040516310c2a11b60e01b815260040160405180910390fd5b5f60038381548110612eac57612eac614bc7565b5f918252602090912060089091020160018101549091506001600160a01b03163314612eeb5760405163068690bf60e11b815260040160405180910390fd5b60048101805460018301546005840180546001600160a01b0319166001600160a01b039092169190911790555f91829055338252601260205260408220805491928392612f39908490614c40565b9091555050604051818152339085907fb9670bf4f2273686f771c9ab65309436df5ed75afa63eefec8b67640d8bcf72c90602001611382565b612f7a613c75565b612f82613ca3565b81612f8c81614419565b5f838152600c60205260408120548491819003612fbc57604051636e24219160e01b815260040160405180910390fd5b5f828152600d60209081526040918290208251606081018452815481526001820154928101929092526002015491810182905290421061300f57604051637a19ed0560e01b815260040160405180910390fd5b5f868152600a6020526040812054900361303c576040516353480bcb60e11b815260040160405180910390fd5b5f868152600c6020908152604080832054600e835281842054600f845282852033865290935292205481900361308557604051637c9a1cf960e01b815260040160405180910390fd5b5f888152601060209081526040808320338452909152812054908190036130bf57604051632fb19d7760e01b815260040160405180910390fd5b5f6130cb600183614bb4565b5f8b8152600a6020526040902080549192503391839081106130ef576130ef614bc7565b5f918252602090912001546001600160a01b03161461312157604051632fb19d7760e01b815260040160405180910390fd5b5f8a8152600b6020526040812080548390811061314057613140614bc7565b905f5260205f2001549050805f0361316b57604051632fb19d7760e01b815260040160405180910390fd5b5f8b8152600f6020908152604080832033845282528083208790558d8352600d90915290208a156131b35781815f015f8282546131a89190614c40565b909155506131cc9050565b81816001015f8282546131c69190614c40565b90915550505b60405186908d9033907f67d0b7dbd93aaa65f63b8234b21d2c0892482b761ac101e5ea1f603159c5788f905f90a4604080518c151581526020810184905287918e9133917fe89c99a0264d21c2ad18316d6e7b3aa31414c12f31b085afdeeacaa7e69f80b6910160405180910390a450505050505050505050610f3a614104565b5f818152600a60209081526040808320600b8352928190208354825181850281018501909352808352606094859490939184918301828280156132b757602002820191905f5260205f20905b81546001600160a01b03168152600190910190602001808311613299575b505050505091508080548060200260200160405190810160405280929190818152602001828054801561330757602002820191905f5260205f20905b8154815260200190600101908083116132f3575b5050505050905091509150915091565b6008602052815f5260405f208181548110610c57575f80fd5b613338613c75565b613340613ca3565b8061334a81613cce565b81613354816143ec565b5f6003848154811061336857613368614bc7565b5f918252602090912060089091020160018101549091506001600160a01b031633146133a75760405163068690bf60e11b815260040160405180910390fd5b60018101546005820180546001600160a01b0319166001600160a01b039092169190911790555f848152600b60205260408120805482906133ea576133ea614bc7565b905f5260205f20015490505f8111156134bd575f858152600b602052604081208054829061341a5761341a614bc7565b905f5260205f2001819055505f600a5f8781526020019081526020015f205f8154811061344957613449614bc7565b905f5260205f20015f6101000a8154816001600160a01b0302191690836001600160a01b0316021790555080826004015f8282546134879190614bb4565b909155505060018201546001600160a01b03165f90815260126020526040812080548392906134b7908490614c40565b90915550505b604051818152339086907fb9670bf4f2273686f771c9ab65309436df5ed75afa63eefec8b67640d8bcf72c906020016111c0565b6134f9613c75565b613501613ca3565b345f036135215760405163a4675adf60e01b815260040160405180910390fd5b66038d7ea4c6800034101561354957604051630fa2e38d60e01b815260040160405180910390fd5b61355584848484614207565b50611f74614104565b6003818154811061356d575f80fd5b5f9182526020909120600890910201805460018201546002830180549294506001600160a01b0390911692916135a290614bdb565b80601f01602080910402602001604051908101604052809291908181526020018280546135ce90614bdb565b80156136195780601f106135f057610100808354040283529160200191613619565b820191905f5260205f20905b8154815290600101906020018083116135fc57829003601f168201915b50505050509080600301805461362e90614bdb565b80601f016020809104026020016040519081016040528092919081815260200182805461365a90614bdb565b80156136a55780601f1061367c576101008083540402835291602001916136a5565b820191905f5260205f20905b81548152906001019060200180831161368857829003601f168201915b50505050600483015460058401546006850154600790950154939491936001600160a01b03909116925088565b6136da61412a565b600180546001600160a01b0383166001600160a01b0319909116811790915561370a5f546001600160a01b031690565b6001600160a01b03167f38d16b8cac22d99fc7c124b9cd0de2d3fa1faef420bfe791d8c362d765e2270060405160405180910390a350565b6001600160a01b0382165f90815260086020908152604080832080548251818502810185019093528083526060949383018282801561379e57602002820191905f5260205f20905b81548152602001906001019080831161378a575b505050505090505f600a67ffffffffffffffff8111156137c0576137c0614b8c565b6040519080825280602002602001820160405280156137f957816020015b6137e66145a2565b8152602001906001900390816137de5790505b5082519091505f905b85811180156138115750600a82105b15610c3157600484613824600184614bb4565b8151811061383457613834614bc7565b60200260200101518154811061384c5761384c614bc7565b5f918252602091829020604080516101008101825260089093029091018054835260018101546001600160a01b0390811694840194909452600281015491830191909152600381015490921660608201526004820180549192916080840191906138b590614bdb565b80601f01602080910402602001604051908101604052809291908181526020018280546138e190614bdb565b801561392c5780601f106139035761010080835404028352916020019161392c565b820191905f5260205f20905b81548152906001019060200180831161390f57829003601f168201915b5050505050815260200160058201805461394590614bdb565b80601f016020809104026020016040519081016040528092919081815260200182805461397190614bdb565b80156139bc5780601f10613993576101008083540402835291602001916139bc565b820191905f5260205f20905b81548152906001019060200180831161399f57829003601f168201915b50505091835250506006820154602082015260079091015460ff16151560409091015283518490849081106139f3576139f3614bc7565b60200260200101819052508180613a0990614c13565b9250508080613a1790614c2b565b915050613802565b613a27613c75565b613a2f613ca3565b80613a3981613cce565b81613a43816143ec565b5f60038481548110613a5757613a57614bc7565b5f918252602090912060089091020160018101549091506001600160a01b03163303613a965760405163cbc448a160e01b815260040160405180910390fd5b5f84815260106020908152604080832033845290915281205490819003613ad057604051632fb19d7760e01b815260040160405180910390fd5b5f613adc600183614bb4565b5f878152600a602052604090208054919250339183908110613b0057613b00614bc7565b5f918252602090912001546001600160a01b031614613b3257604051632fb19d7760e01b815260040160405180910390fd5b5f868152600b60205260408120805483908110613b5157613b51614bc7565b905f5260205f2001549050805f03613b7c57604051632fb19d7760e01b815260040160405180910390fd5b5f878152600b60205260408120805484908110613b9b57613b9b614bc7565b905f5260205f2001819055505f600a5f8981526020019081526020015f208381548110613bca57613bca614bc7565b905f5260205f20015f6101000a8154816001600160a01b0302191690836001600160a01b0316021790555080846004015f828254613c089190614bb4565b9091555050335f9081526012602052604081208054839290613c2b908490614c40565b9091555050604051818152339088907f45219acf9e010ac8674c18cfaf8fbfe8959fe2e9edd0eed203defc4e61f342b99060200160405180910390a35050505050506111d4614104565b613c7d614496565b60027f9b779b17422d0df92223018b32b4d1fa46e071723d6817e2486d003becc55f0055565b600154600160a01b900460ff16156114a35760405163d93c066560e01b815260040160405180910390fd5b6005548110613cf0576040516324ce57e760e21b815260040160405180910390fd5b5f60038281548110613d0457613d04614bc7565b905f5260205f2090600802019050600c5f8381526020019081526020015f20545f14613d4357604051635b64ca4160e11b815260040160405180910390fd5b600181015460058201546001600160a01b03918216911603613d785760405163222ec8d560e21b815260040160405180910390fd5b60058101546001600160a01b031615610f3a5760405163861fbe1360e01b815260040160405180910390fd5b5f60038381548110613db857613db8614bc7565b905f5260205f20906008020190505f60048381548110613dda57613dda614bc7565b5f918252602090912060089091020160018101549091506001600160a01b0316613e175760405163022af77760e11b815260040160405180910390fd5b83816002015414613e3b5760405163022af77760e11b815260040160405180910390fd5b600781015460ff1615613e615760405163688f4def60e11b815260040160405180910390fd5b4782600401541115613e8657604051631e9acf1760e31b815260040160405180910390fd5b600181015460048301546001600160a01b03909116905f612710613eab60fa84614e13565b613eb59190614c53565b90505f613ec28284614bb4565b6005870180546001600160a01b0319166001600160a01b03871690811790915560078089018a90555f60048a01819055908801805460ff191660019081179091558b8252600c602090815260408084208054600d8452828620835160608101855281548152958101805487870152600282018054888701529388905590879055869055908590559484526012909152822080549495509293909285929091613f6b908490614c40565b90915550506001600160a01b037f0000000000000000000000000000000000000000000000000000000000000000165f9081526012602052604081208054869290613fb7908490614c40565b90915550506001880154604080516001600160a01b0392831681526020810188905290810185905260608101869052908716908a908c907fdcdad14441a1197c49ba8b1d80347b4c5e4b8a7ed4331f2145e661e2cd4baf049060800160405180910390a460018801546040516323b872dd60e01b81523060048201526001600160a01b039182166024820152604481018b90527f0000000000000000000000000000000000000000000000000000000000000000909116906323b872dd906064015f604051808303815f87803b15801561408f575f80fd5b505af11580156140a1573d5f803e3d5ffd5b50505050815f146140f85780516020808301516040805160018152928301939093528183015290518a918c917fbd3b85774c6d6de13de05b2a82617564efb983fe1d18fe467f4d0566d0e18ba99181900360600190a35b50505050505050505050565b60017f9b779b17422d0df92223018b32b4d1fa46e071723d6817e2486d003becc55f0055565b5f546001600160a01b031633146114a35760405163118cdaa760e01b81523360048201526024016119a9565b61415e6144d8565b6001805460ff60a01b191690557f5db9ee0a495bf2e6ff9c91a7834c1ba4fdd244a5e8aa4e537bd38aeae4b073aa335b6040516001600160a01b03909116815260200160405180910390a1565b600180546001600160a01b03191690556111d481614502565b6141cc613ca3565b6001805460ff60a01b1916600160a01b1790557f62e78cea01bee320cd4e420270b5ea74000d11b0c9f74754ebdbfc544b05a25861418e3390565b6005546040805161010081018252828152336020808301919091528251601f8801829004820281018201845287815260039383019189908990819084018382808284375f92019190915250505090825250604080516020601f8801819004810282018101909252868152918101919087908790819084018382808284375f9201829052509385525050346020808501919091526040808501849052426060860152608090940183905285546001808201885596845292819020855160089094020192835584015194820180546001600160a01b0319166001600160a01b0390961695909517909455908201519192509060028201906143069082614cbe565b506060820151600382019061431b9082614cbe565b506080820151600482015560a0820151600580830180546001600160a01b0319166001600160a01b039093169290921790915560c0830151600683015560e090920151600791820155335f90815260209182526040812080546001810182559082529181209091018390558154919061439383614c13565b9190505550336001600160a01b0316817fd00fa07781d3060308d3f5da95be7929ceef8a74a9bf989b48a216ce85f73e258787878734426040516143dc96959493929190614e2a565b60405180910390a3949350505050565b5f818152600a602052604081205490036111d4576040516353480bcb60e11b815260040160405180910390fd5b60055481106111d4576040516324ce57e760e21b815260040160405180910390fd5b5f6003828154811061444f5761444f614bc7565b5f9182526020909120600890910201600181015460058201549192506001600160a01b03908116911603613d785760405163222ec8d560e21b815260040160405180910390fd5b7f9b779b17422d0df92223018b32b4d1fa46e071723d6817e2486d003becc55f00546002036114a357604051633ee5aeb560e01b815260040160405180910390fd5b600154600160a01b900460ff166114a357604051638dfc202b60e01b815260040160405180910390fd5b5f80546001600160a01b038381166001600160a01b0319831681178455604051919092169283917f8be0079c531659141344cd1fd0a4f28419497f9722a3daafe3b4186f6b6457e09190a35050565b6040518061010001604052805f81526020015f6001600160a01b0316815260200160608152602001606081526020015f81526020015f6001600160a01b031681526020015f81526020015f81525090565b6040518061010001604052805f81526020015f6001600160a01b031681526020015f81526020015f6001600160a01b0316815260200160608152602001606081526020015f81526020015f151581525090565b80356001600160a01b038116811461460b575f80fd5b919050565b5f8060408385031215614621575f80fd5b61462a836145f5565b946020939093013593505050565b5f81518084525f5b8181101561465c57602081850181015186830182015201614640565b505f602082860101526020601f19601f83011685010191505092915050565b5f60208083018184528085518083526040925060408601915060408160051b8701018488015f5b8381101561474e57888303603f19018552815180518452878101516001600160a01b03168885015286810151610100888601819052906146e482870182614638565b915050606080830151868303828801526146fe8382614638565b92505050608080830151818701525060a080830151614727828801826001600160a01b03169052565b505060c0828101519086015260e091820151919094015293860193908601906001016146a2565b509098975050505050505050565b5f6020828403121561476c575f80fd5b5035919050565b5f8060408385031215614784575f80fd5b50508035926020909101359150565b5f805f606084860312156147a5575f80fd5b505081359360208301359350604090920135919050565b604080825283519082018190525f906020906060840190828701845b828110156147fd5781516001600160a01b0316845292840192908401906001016147d8565b505050838103828501528451808252858301918301905f5b8181101561483157835183529284019291840191600101614815565b5090979650505050505050565b5f8083601f84011261484e575f80fd5b50813567ffffffffffffffff811115614865575f80fd5b60208301915083602082850101111561487c575f80fd5b9250929050565b5f805f805f805f6080888a031215614899575f80fd5b87359650602088013567ffffffffffffffff808211156148b7575f80fd5b6148c38b838c0161483e565b909850965060408a01359150808211156148db575f80fd5b6148e78b838c0161483e565b909650945060608a01359150808211156148ff575f80fd5b5061490c8a828b0161483e565b989b979a50959850939692959293505050565b5f805f8060408587031215614932575f80fd5b843567ffffffffffffffff80821115614949575f80fd5b6149558883890161483e565b9096509450602087013591508082111561496d575f80fd5b5061497a8782880161483e565b95989497509550505050565b8881526001600160a01b0388811660208301526040820188905286166060820152610100608082018190525f906149bf83820188614638565b905082810360a08401526149d38187614638565b60c0840195909552505090151560e0909101529695505050505050565b5f60208083018184528085518083526040925060408601915060408160051b8701018488015f5b8381101561474e57888303603f19018552815180518452878101516001600160a01b03168885015286810151878501526060808201516101009190614a66828801826001600160a01b03169052565b50506080808301518282880152614a7f83880182614638565b9250505060a08083015186830382880152614a9a8382614638565b9250505060c080830151818701525060e0808301519250614abe8187018415159052565b509588019593505090860190600101614a17565b5f8060408385031215614ae3575f80fd5b8235915060208301358015158114614af9575f80fd5b809150509250929050565b8881526001600160a01b038881166020830152610100604083018190525f91614b2f8483018b614638565b91508382036060850152614b43828a614638565b60808501989098529590951660a08301525060c081019290925260e09091015250949350505050565b5f60208284031215614b7c575f80fd5b614b85826145f5565b9392505050565b634e487b7160e01b5f52604160045260245ffd5b634e487b7160e01b5f52601160045260245ffd5b81810381811115610c3857610c38614ba0565b634e487b7160e01b5f52603260045260245ffd5b600181811c90821680614bef57607f821691505b602082108103614c0d57634e487b7160e01b5f52602260045260245ffd5b50919050565b5f60018201614c2457614c24614ba0565b5060010190565b5f81614c3957614c39614ba0565b505f190190565b80820180821115610c3857610c38614ba0565b5f82614c6d57634e487b7160e01b5f52601260045260245ffd5b500490565b601f821115614cb957805f5260205f20601f840160051c81016020851015614c975750805b601f840160051c820191505b81811015614cb6575f8155600101614ca3565b50505b505050565b815167ffffffffffffffff811115614cd857614cd8614b8c565b614cec81614ce68454614bdb565b84614c72565b602080601f831160018114614d1f575f8415614d085750858301515b5f19600386901b1c1916600185901b178555614d76565b5f85815260208120601f198616915b82811015614d4d57888601518255948401946001909101908401614d2e565b5085821015614d6a57878501515f19600388901b60f8161c191681555b505060018460011b0185555b505050505050565b81835281816020850137505f828201602090810191909152601f909101601f19169091010190565b838152604060208201525f614dbf604083018486614d7e565b95945050505050565b6001600160a01b03871681526080602082018190525f90614dec9083018789614d7e565b8281036040840152614dff818688614d7e565b915050826060830152979650505050505050565b8082028115828204841417610c3857610c38614ba0565b608081525f614e3d60808301888a614d7e565b8281036020840152614e50818789614d7e565b604084019590955250506060015294935050505056fea26469706673582212205208580859698b8886a80718f833f15ce1c1aa7b635c99586f3eca2b6a3fde4a64736f6c63430008180033","linkReferences":{}},"methodIdentifiers":{"BPS_DENOM()":"6637e38c","FEE_BPS()":"bf333f2c","MAX_PARTICIPANTS()":"f3baf070","MIN_BOUNTY_AMOUNT()":"d5670525","acceptClaim(uint256,uint256)":"1d260f8e","acceptOwnership()":"79ba5097","bounties(uint256)":"dc2f8744","bountyClaims(uint256,uint256)":"34414835","bountyCounter()":"a0d59787","bountyCurrentVotingClaim(uint256)":"383d6d43","bountyVotingTracker(uint256)":"10b385c2","cancelOpenBounty(uint256)":"d496ec7a","cancelSoloBounty(uint256)":"b1b4be97","claimCounter()":"4efa8f17","claimRefundFromCancelledOpenBounty(uint256)":"240b727e","claims(uint256)":"a888c2cd","createClaim(uint256,string,string,string)":"83ffc9f2","createOpenBounty(string,string)":"8c1d93c5","createSoloBounty(string,string)":"d4ea4227","everHadExternalContributor(uint256)":"b04f5ebd","getBounties(uint256)":"593b0d26","getBountiesByUser(address,uint256)":"0e122a78","getBountiesLength()":"ec9a01fe","getClaimsByBountyId(uint256,uint256)":"b03a50c7","getClaimsByUser(address,uint256)":"f3903759","getParticipants(uint256)":"c1e3bd3e","getParticipantsPaged(uint256,uint256,uint256)":"6351accd","joinOpenBounty(uint256)":"a9b2c6eb","owner()":"8da5cb5b","participantAmounts(uint256,uint256)":"136655c8","participants(uint256,uint256)":"81fb1fb4","pause()":"8456cb59","paused()":"5c975abb","pendingOwner()":"e30c3978","pendingWithdrawals(address)":"f3f43703","poidhNft()":"2b270d31","renounceOwnership()":"715018a6","resetVotingPeriod(uint256)":"ad33fa49","resolveVote(uint256)":"30f4ccac","submitClaimForVote(uint256,uint256)":"9e9251c8","transferOwnership(address)":"f2fde38b","treasury()":"61d027b3","unpause()":"3f4ba83a","userBounties(address,uint256)":"2b9234b9","userClaims(address,uint256)":"ca9748ea","voteClaim(uint256,bool)":"b7c8994d","voteRound(uint256)":"2455a9c6","votingPeriod()":"02a251a3","withdraw()":"3ccfd60b","withdrawFromOpenBounty(uint256)":"faf0f5e9"},"id":45}